{
  "contractName": "MinterRole",
  "abi": [
    {
      "inputs": [],
      "stateMutability": "nonpayable",
      "type": "constructor"
    },
    {
      "anonymous": false,
      "inputs": [
        {
          "indexed": true,
          "internalType": "address",
          "name": "account",
          "type": "address"
        }
      ],
      "name": "MinterAdded",
      "type": "event"
    },
    {
      "anonymous": false,
      "inputs": [
        {
          "indexed": true,
          "internalType": "address",
          "name": "account",
          "type": "address"
        }
      ],
      "name": "MinterRemoved",
      "type": "event"
    },
    {
      "inputs": [
        {
          "internalType": "address",
          "name": "account",
          "type": "address"
        }
      ],
      "name": "isMinter",
      "outputs": [
        {
          "internalType": "bool",
          "name": "",
          "type": "bool"
        }
      ],
      "stateMutability": "view",
      "type": "function"
    },
    {
      "inputs": [
        {
          "internalType": "address",
          "name": "account",
          "type": "address"
        }
      ],
      "name": "addMinter",
      "outputs": [],
      "stateMutability": "nonpayable",
      "type": "function"
    },
    {
      "inputs": [],
      "name": "renounceMinter",
      "outputs": [],
      "stateMutability": "nonpayable",
      "type": "function"
    }
  ],
  "bytecode": "0x608060405234801561001057600080fd5b5061002d61002261003260201b60201c565b61003a60201b60201c565b610257565b600033905090565b61005281600061009860201b6102c51790919060201c565b8073ffffffffffffffffffffffffffffffffffffffff167f6ae172837ea30b801fbfcdd4108aa1d5bf8ff775444fd70256b44e6bf3dfc3f660405160405180910390a250565b6100a8828261017960201b60201c565b1561011b576040517f08c379a000000000000000000000000000000000000000000000000000000000815260040180806020018281038252601f8152602001807f526f6c65733a206163636f756e7420616c72656164792068617320726f6c650081525060200191505060405180910390fd5b60018260000160008373ffffffffffffffffffffffffffffffffffffffff1673ffffffffffffffffffffffffffffffffffffffff16815260200190815260200160002060006101000a81548160ff0219169083151502179055505050565b60008073ffffffffffffffffffffffffffffffffffffffff168273ffffffffffffffffffffffffffffffffffffffff161415610200576040517f08c379a000000000000000000000000000000000000000000000000000000000815260040180806020018281038252602281526020018061073c6022913960400191505060405180910390fd5b8260000160008373ffffffffffffffffffffffffffffffffffffffff1673ffffffffffffffffffffffffffffffffffffffff16815260200190815260200160002060009054906101000a900460ff16905092915050565b6104d6806102666000396000f3fe608060405234801561001057600080fd5b50600436106100415760003560e01c8063983b2d5614610046578063986502751461008a578063aa271e1a14610094575b600080fd5b6100886004803603602081101561005c57600080fd5b81019080803573ffffffffffffffffffffffffffffffffffffffff1690602001909291905050506100f0565b005b6100926100fc565b005b6100d6600480360360208110156100aa57600080fd5b81019080803573ffffffffffffffffffffffffffffffffffffffff16906020019092919050505061010e565b604051808215151515815260200191505060405180910390f35b6100f98161012b565b50565b61010c610107610185565b61018d565b565b60006101248260006101e790919063ffffffff16565b9050919050565b61013f8160006102c590919063ffffffff16565b8073ffffffffffffffffffffffffffffffffffffffff167f6ae172837ea30b801fbfcdd4108aa1d5bf8ff775444fd70256b44e6bf3dfc3f660405160405180910390a250565b600033905090565b6101a18160006103a090919063ffffffff16565b8073ffffffffffffffffffffffffffffffffffffffff167fe94479a9f7e1952cc78f2d6baab678adc1b772d936c6583def489e524cb6669260405160405180910390a250565b60008073ffffffffffffffffffffffffffffffffffffffff168273ffffffffffffffffffffffffffffffffffffffff16141561026e576040517f08c379a000000000000000000000000000000000000000000000000000000000815260040180806020018281038252602281526020018061047f6022913960400191505060405180910390fd5b8260000160008373ffffffffffffffffffffffffffffffffffffffff1673ffffffffffffffffffffffffffffffffffffffff16815260200190815260200160002060009054906101000a900460ff16905092915050565b6102cf82826101e7565b15610342576040517f08c379a000000000000000000000000000000000000000000000000000000000815260040180806020018281038252601f8152602001807f526f6c65733a206163636f756e7420616c72656164792068617320726f6c650081525060200191505060405180910390fd5b60018260000160008373ffffffffffffffffffffffffffffffffffffffff1673ffffffffffffffffffffffffffffffffffffffff16815260200190815260200160002060006101000a81548160ff0219169083151502179055505050565b6103aa82826101e7565b6103ff576040517f08c379a000000000000000000000000000000000000000000000000000000000815260040180806020018281038252602181526020018061045e6021913960400191505060405180910390fd5b60008260000160008373ffffffffffffffffffffffffffffffffffffffff1673ffffffffffffffffffffffffffffffffffffffff16815260200190815260200160002060006101000a81548160ff021916908315150217905550505056fe526f6c65733a206163636f756e7420646f6573206e6f74206861766520726f6c65526f6c65733a206163636f756e7420697320746865207a65726f2061646472657373a2646970667358221220fa8635602640cd333516b958073a8d3ff55787c59750e1fc8cf20ef1d1520ef764736f6c63430006020033526f6c65733a206163636f756e7420697320746865207a65726f2061646472657373",
  "source": "// SPDX-License-Identifier: MIT\r\n\r\npragma solidity >=0.6.0 <0.8.0;\r\n\r\nimport \"@openzeppelin/contracts/GSN/Context.sol\";\r\nimport \"./Roles.sol\";\r\n\r\ncontract MinterRole is Context {\r\n    using Roles for Roles.Role;\r\n\r\n    event MinterAdded(address indexed account);\r\n    event MinterRemoved(address indexed account);\r\n\r\n    Roles.Role private _minters;\r\n\r\n    constructor () public {\r\n        _addMinter(_msgSender());\r\n    }\r\n\r\n    modifier onlyMinter() {\r\n        require(isMinter(_msgSender()), \"MinterRole: caller does not have the Minter role\");\r\n        _;\r\n    }\r\n\r\n    function isMinter(address account) public view returns (bool) {\r\n        return _minters.has(account);\r\n    }\r\n\r\n    function addMinter(address account) public {\r\n        _addMinter(account);\r\n    }\r\n\r\n    function renounceMinter() public {\r\n        _removeMinter(_msgSender());\r\n    }\r\n\r\n    function _addMinter(address account) internal virtual {\r\n        _minters.add(account);\r\n        emit MinterAdded(account);\r\n    }\r\n\r\n    function _removeMinter(address account) internal virtual {\r\n        _minters.remove(account);\r\n        emit MinterRemoved(account);\r\n    }\r\n}",
  "sourcePath": "C:\\devroot\\Solidity\\learning\\Udemy\\Ethereum BlockChain Bootcamp\\ERC20_Example\\contracts\\MinterRole.sol",
  "compiler": {
    "name": "solc",
    "version": "0.6.2+commit.bacdbe57.Emscripten.clang"
  },
  "schemaVersion": "3.3.4",
  "updatedAt": "2021-03-28T02:25:14.899Z",
  "devdoc": {
    "methods": {}
  },
  "userdoc": {
    "methods": {}
  }
}