{
  "contractName": "MyTokenSale",
  "abi": [
    {
      "inputs": [
        {
          "internalType": "uint256",
          "name": "rate",
          "type": "uint256"
        },
        {
          "internalType": "address payable",
          "name": "wallet",
          "type": "address"
        },
        {
          "internalType": "contract IERC20",
          "name": "token",
          "type": "address"
        },
        {
          "internalType": "contract KycContract",
          "name": "_kyc",
          "type": "address"
        }
      ],
      "stateMutability": "nonpayable",
      "type": "constructor"
    },
    {
      "anonymous": false,
      "inputs": [
        {
          "indexed": true,
          "internalType": "address",
          "name": "purchaser",
          "type": "address"
        },
        {
          "indexed": true,
          "internalType": "address",
          "name": "beneficiary",
          "type": "address"
        },
        {
          "indexed": false,
          "internalType": "uint256",
          "name": "value",
          "type": "uint256"
        },
        {
          "indexed": false,
          "internalType": "uint256",
          "name": "amount",
          "type": "uint256"
        }
      ],
      "name": "TokensPurchased",
      "type": "event"
    },
    {
      "inputs": [
        {
          "internalType": "address",
          "name": "beneficiary",
          "type": "address"
        }
      ],
      "name": "buyTokens",
      "outputs": [],
      "stateMutability": "payable",
      "type": "function",
      "payable": true
    },
    {
      "inputs": [],
      "name": "rate",
      "outputs": [
        {
          "internalType": "uint256",
          "name": "",
          "type": "uint256"
        }
      ],
      "stateMutability": "view",
      "type": "function",
      "constant": true
    },
    {
      "inputs": [],
      "name": "token",
      "outputs": [
        {
          "internalType": "contract IERC20",
          "name": "",
          "type": "address"
        }
      ],
      "stateMutability": "view",
      "type": "function",
      "constant": true
    },
    {
      "inputs": [],
      "name": "wallet",
      "outputs": [
        {
          "internalType": "address payable",
          "name": "",
          "type": "address"
        }
      ],
      "stateMutability": "view",
      "type": "function",
      "constant": true
    },
    {
      "inputs": [],
      "name": "weiRaised",
      "outputs": [
        {
          "internalType": "uint256",
          "name": "",
          "type": "uint256"
        }
      ],
      "stateMutability": "view",
      "type": "function",
      "constant": true
    },
    {
      "stateMutability": "payable",
      "type": "receive",
      "payable": true
    }
  ],
  "bytecode": "0x608060405234801561001057600080fd5b50604051610c76380380610c768339818101604052608081101561003357600080fd5b81019080805190602001909291908051906020019092919080519060200190929190805190602001909291905050508383836001600081905550600083116100e3576040517f08c379a00000000000000000000000000000000000000000000000000000000081526004018080602001828103825260148152602001807f43726f776473616c653a2072617465206973203000000000000000000000000081525060200191505060405180910390fd5b600073ffffffffffffffffffffffffffffffffffffffff168273ffffffffffffffffffffffffffffffffffffffff161415610169576040517f08c379a0000000000000000000000000000000000000000000000000000000008152600401808060200182810382526025815260200180610c516025913960400191505060405180910390fd5b600073ffffffffffffffffffffffffffffffffffffffff168173ffffffffffffffffffffffffffffffffffffffff1614156101ef576040517f08c379a0000000000000000000000000000000000000000000000000000000008152600401808060200182810382526024815260200180610c2d6024913960400191505060405180910390fd5b8260038190555081600260006101000a81548173ffffffffffffffffffffffffffffffffffffffff021916908373ffffffffffffffffffffffffffffffffffffffff16021790555080600160006101000a81548173ffffffffffffffffffffffffffffffffffffffff021916908373ffffffffffffffffffffffffffffffffffffffff16021790555050505080600560006101000a81548173ffffffffffffffffffffffffffffffffffffffff021916908373ffffffffffffffffffffffffffffffffffffffff1602179055505050505061095e806102cf6000396000f3fe60806040526004361061004e5760003560e01c80632c4e722e146100635780634042b66f1461008e578063521eb273146100b9578063ec8ac4d814610110578063fc0c546a146101545761005e565b3661005e5761005c336101ab565b005b600080fd5b34801561006f57600080fd5b50610078610303565b6040518082815260200191505060405180910390f35b34801561009a57600080fd5b506100a361030d565b6040518082815260200191505060405180910390f35b3480156100c557600080fd5b506100ce610317565b604051808273ffffffffffffffffffffffffffffffffffffffff1673ffffffffffffffffffffffffffffffffffffffff16815260200191505060405180910390f35b6101526004803603602081101561012657600080fd5b81019080803573ffffffffffffffffffffffffffffffffffffffff1690602001909291905050506101ab565b005b34801561016057600080fd5b50610169610341565b604051808273ffffffffffffffffffffffffffffffffffffffff1673ffffffffffffffffffffffffffffffffffffffff16815260200191505060405180910390f35b60026000541415610224576040517f08c379a000000000000000000000000000000000000000000000000000000000815260040180806020018281038252601f8152602001807f5265656e7472616e637947756172643a207265656e7472616e742063616c6c0081525060200191505060405180910390fd5b6002600081905550600034905061023b828261036b565b6000610246826104a8565b905061025d826004546104c690919063ffffffff16565b60048190555061026d838261054e565b8273ffffffffffffffffffffffffffffffffffffffff163373ffffffffffffffffffffffffffffffffffffffff167f6faf93231a456e552dbc9961f58d9713ee4f2e69d15f1975b050ef0911053a7b8484604051808381526020018281526020019250505060405180910390a36102e4838361055c565b6102ec610560565b6102f683836105cb565b5050600160008190555050565b6000600354905090565b6000600454905090565b6000600260009054906101000a900473ffffffffffffffffffffffffffffffffffffffff16905090565b6000600160009054906101000a900473ffffffffffffffffffffffffffffffffffffffff16905090565b61037582826105cf565b600560009054906101000a900473ffffffffffffffffffffffffffffffffffffffff1673ffffffffffffffffffffffffffffffffffffffff1663b52376ac336040518263ffffffff1660e01b8152600401808273ffffffffffffffffffffffffffffffffffffffff1673ffffffffffffffffffffffffffffffffffffffff16815260200191505060206040518083038186803b15801561041457600080fd5b505afa158015610428573d6000803e3d6000fd5b505050506040513d602081101561043e57600080fd5b81019080805190602001909291905050506104a4576040517f08c379a00000000000000000000000000000000000000000000000000000000081526004018080602001828103825260488152602001806108e16048913960600191505060405180910390fd5b5050565b60006104bf600354836106d090919063ffffffff16565b9050919050565b600080828401905083811015610544576040517f08c379a000000000000000000000000000000000000000000000000000000000815260040180806020018281038252601b8152602001807f536166654d6174683a206164646974696f6e206f766572666c6f77000000000081525060200191505060405180910390fd5b8091505092915050565b6105588282610756565b5050565b5050565b600260009054906101000a900473ffffffffffffffffffffffffffffffffffffffff1673ffffffffffffffffffffffffffffffffffffffff166108fc349081150290604051600060405180830381858888f193505050501580156105c8573d6000803e3d6000fd5b50565b5050565b600073ffffffffffffffffffffffffffffffffffffffff168273ffffffffffffffffffffffffffffffffffffffff161415610655576040517f08c379a000000000000000000000000000000000000000000000000000000000815260040180806020018281038252602a8152602001806108b7602a913960400191505060405180910390fd5b60008114156106cc576040517f08c379a00000000000000000000000000000000000000000000000000000000081526004018080602001828103825260198152602001807f43726f776473616c653a20776569416d6f756e7420697320300000000000000081525060200191505060405180910390fd5b5050565b6000808314156106e35760009050610750565b60008284029050828482816106f457fe5b041461074b576040517f08c379a00000000000000000000000000000000000000000000000000000000081526004018080602001828103825260218152602001806108966021913960400191505060405180910390fd5b809150505b92915050565b61075e610341565b73ffffffffffffffffffffffffffffffffffffffff166340c10f1983836040518363ffffffff1660e01b8152600401808373ffffffffffffffffffffffffffffffffffffffff1673ffffffffffffffffffffffffffffffffffffffff16815260200182815260200192505050602060405180830381600087803b1580156107e457600080fd5b505af11580156107f8573d6000803e3d6000fd5b505050506040513d602081101561080e57600080fd5b8101908080519060200190929190505050610891576040517f08c379a000000000000000000000000000000000000000000000000000000000815260040180806020018281038252601f8152602001807f4d696e74656443726f776473616c653a206d696e74696e67206661696c65640081525060200191505060405180910390fd5b505056fe536166654d6174683a206d756c7469706c69636174696f6e206f766572666c6f7743726f776473616c653a2062656e656669636961727920697320746865207a65726f2061646472657373506c6561736520636f6d706c6574652074686520437573746f6d657220496e666f726d6174696f6e20666f726d2e205075726368616e7365206973206e6f7420616c6c6f7765642ea2646970667358221220baf601f12f3b0e617adac20f3b1843e63cd4ec4c13cbf88cdece21fb73654b1164736f6c6343000602003343726f776473616c653a20746f6b656e20697320746865207a65726f206164647265737343726f776473616c653a2077616c6c657420697320746865207a65726f2061646472657373",
  "source": "pragma solidity ^0.6.0;\r\n\r\nimport \"./Crowdsale.sol\";\r\nimport \"./MintedCrowdsale.sol\";\r\nimport \"./KycContract.sol\";\r\n\r\n/** @title MyTokenSale contract\r\n    * @author Chris Ball\r\n    * @notice This contract handles the Crowdsale of MyToken ERC20 tokens      \r\n*/\r\ncontract MyTokenSale is MintedCrowdsale {\r\n\r\n        KycContract kyc;\r\n\r\n        constructor(\r\n        uint256 rate,    // rate in TKNbits\r\n        address payable wallet,\r\n        IERC20 token,\r\n        KycContract _kyc\r\n    )\r\n        MintedCrowdsale() \r\n        Crowdsale(rate, wallet, token)\r\n        public\r\n    {\r\n        kyc = _kyc;\r\n    }\r\n\r\n    /** @notice function validates whether the address purchasing tokens is currently whitelisted \r\n      * @dev this function overrides the Crowdsale function of the same name.\r\n      * @param beneficiary address purchasing tokens \r\n      * @param weiAmount amount of tokens being purchased in wei\r\n      */\r\n    function _preValidatePurchase(address beneficiary, uint256 weiAmount) internal view override {\r\n        super._preValidatePurchase(beneficiary, weiAmount);\r\n        require(kyc.IsCustomerValid(msg.sender), \"Please complete the Customer Information form. Purchanse is not allowed.\");\r\n    }\r\n}",
  "sourcePath": "C:/devroot/Solidity/learning/Udemy/Ethereum BlockChain Bootcamp/ERC20_Example/contracts/MyTokenSale.sol",
  "compiler": {
    "name": "solc",
    "version": "0.6.2+commit.bacdbe57.Emscripten.clang"
  },
  "schemaVersion": "3.3.4",
  "updatedAt": "2021-03-28T02:25:24.837Z",
  "networkType": "ethereum",
  "devdoc": {
    "author": "Chris Ball",
    "methods": {
      "buyTokens(address)": {
        "details": "low level token purchase ***DO NOT OVERRIDE*** This function has a non-reentrancy guard, so it shouldn't be called by another `nonReentrant` function.",
        "params": {
          "beneficiary": "Recipient of the token purchase"
        }
      }
    },
    "title": "MyTokenSale contract"
  },
  "userdoc": {
    "methods": {},
    "notice": "This contract handles the Crowdsale of MyToken ERC20 tokens      "
  }
}